:020000040800F2
:1000000090760020014A0008550D0008570D0008A1
:10001000690D00086D0D0008710D0008000000005A
:10002000000000000000000000000000750D000846
:10003000770D0008000000006B6C0008CF6E000810
:100040001B4A00081B4A00081B4A00081B4A0008FC
:100050001B4A00081B4A00081B4A00081B4A0008EC
:100060001B4A00081B4A00081B4A00081B4A0008DC
:100070001B4A00081B4A00081B4A00081B4A0008CC
:100080001B4A00081B4A00081B4A00081B4A0008BC
:10009000670400081B4A00081B4A00081B4A0008A6
:1000A0001B4A00081B4A00081B4A00081B4A00089C
:1000B0001B4A0008D30D00081B4A00081B4A000811
:1000C0001B4A00081B4A00081B4A00081B4A00087C
:1000D0001B4A00081B4A00081B4A00081B4A00086C
:1000E0001B4A00081B4A00081B4A00081B4A00085C
:1000F0001B4A00081B4A00081B4A00081B4A00084C
:100100001B4A00081B4A00081B4A00081B4A00083B
:100110001B4A00081B4A00081B4A00081B4A00082B
:100120001B4A00081B4A00081B4A00081B4A00081B
:100130001B4A00081B4A00081B4A00081B4A00080B
:10014000650700081B4A00081B4A00081B4A0008F4
:100150001B4A00081B4A0008410F00081B4A000800
:100160001B4A00081B4A00081B4A00081B4A0008DB
:100170001B4A00081B4A00081B4A00081B4A0008CB
:100180001B4A00081B4A0008DFF80CD006F0FAFEF4
:1001900000480047B10B00089076002030BF72B6CF
:1001A000704762B6704780F3088870471CB501211C
:1001B000084603F08DFB01208DF8040000208DF827
:1001C00006004FF48070009000208DF8050069460D
:1001D000354803F037F94FF48070334948831CBD2C
:1001E00070B5044600250EE04FF480702E49088358
:1001F000C82000F053F94FF480702B494883C82081
:1002000000F04CF96D1CA542EEDB70BD70B50446E4
:10021000B4F57A7F11D02548B0FBF4F54FF4807027
:1002200021490883284600F047F94FF480701E49A1
:100230004883284600F040F903E04FF47A7000F05C
:100240003BF970BD70B59CB02C22194911A806F07D
:1002500087FE202217A109A806F082FE20221DA1F8
:1002600001A806F07DFE0A26002418E0002508E01B
:1002700009A9095D11AA32F81100FFF7C7FF681C30
:1002800085B201A8005D09A9095D11AA32F8111013
:100290004843B0FBF6F0A842EAD8601C84B21D2C9B
:1002A000E4D31CB070BD00000000024020A1070094
:1002B00084700008040405040706150404050408F6
:1002C000071504040B0907060515030309070807AA
:1002D00015000000020204040404040202040404E1
:1002E00004040202040404040404020204040404D6
:1002F0000400000000B58BB00121480603F01BFB91
:100300000121084603F0E4FA09220B21614803F0B9
:1003100024F909220C215F4803F01FF902208DF80F
:1003200018004FF4C050059005A95A4803F08AF808
:1003300014208DF8280003208DF8290000208DF866
:100340002A0001208DF82B000AA802F0D6F85248A6
:1003500002F03EF907A802F05FFA00208DF82200B3
:100360008DF823008DF824008DF825008DF82600E7
:100370008DF827008DF81E008DF81F0008208DF8DD
:10038000200003208DF82100ADF81C0007A9424889
:1003900002F037F901208DF80E008DF80F000020D3
:1003A0008DF8100046F2A000ADF8040046F2C0003F
:1003B000ADF8060046F2E000ADF808004FF4C24088
:1003C000ADF80A000020ADF80C0001208DF81100F6
:1003D00001A802F0A0F903208DF80E0001208DF88D
:1003E0000F0000208DF810004FF4C840ADF8040055
:1003F00046F22000ADF8060046F24000ADF80800D5
:1004000046F26000ADF80A000020ADF80C000120B3
:100410008DF8110001A802F07EF904208DF80E007D
:1004200000208DF80F0001208DF810000820ADF895
:10043000040042F60400ADF806004FF6FF70ADF878
:100440000800ADF80A000020ADF80C0001208DF87E
:10045000110001A802F05FF9012202210E4802F00A
:1004600059FC0BB000BD00B585B002210A4802F06E
:10047000B9FC60B10221084802F04FFD0221064894
:1004800002F08DFC6A460021034802F028FB05B00B
:1004900000BD0000000002400064004010B50021D3
:1004A00007E04AF2104200BF131EA2F10102FBD185
:1004B000491C8142F5D310BD10B5002106E0282269
:1004C00000BF131EA2F10102FBD1491C8142F6D3E9
:1004D00010BD00BF011EA0F1010290B2FAD1704719
:1004E0002DE9F0418AB004460D4616469846109F05
:1004F0000121880603F01FFA0121022003F0E8F928
:1005000009220521FD4803F028F809220621FB48AD
:1005100003F023F802208DF814006020049004A951
:10052000F64802F08FFF40208DF8240002208DF85D
:10053000250000208DF8260001208DF8270009A84D
:1005400001F0DBFF41208DF8240002208DF825000A
:1005500001208DF826008DF8270009A801F0CDFFB5
:10056000E74802F035F806A802F056F900208DF8A9
:100570001E008DF81F008DF820008DF821008DF8E9
:1005800022008DF823008DF81A708DF81B408DF82D
:100590001C608DF81D500320ADF8180006A9D8483E
:1005A00002F02FF80E208DF80A0001208DF80B00C4
:1005B00000208DF80C0044F22000ADF8000044F259
:1005C0004000ADF8020044F26000ADF804004FF4C2
:1005D0008140ADF806000020ADF8080001208DF83C
:1005E0000D00684602F097F80F208DF80A000120F0
:1005F0008DF80B0000208DF80C0044F2A000ADF83F
:10060000000044F2C000ADF8020044F2E000ADF892
:1006100004004FF48240ADF806000020ADF8080059
:1006200001208DF80D00684602F075F8684602F06A
:1006300072F801221021B24802F06CFB0122022163
:10064000AF4802F067FB00200AB0BDE8F08170B54A
:10065000044604EBC40000EB4000AA4901EBC000D3
:10066000B0F90800002808DD04EBC40000EB4000EE
:1006700001EBC000B0F9080009E004EBC40000EB96
:100680004000A04901EBC000B0F90800404204EB73
:10069000C40101EB41019B4A02EBC101B1F8D0104A
:1006A000884220DD04EBC40000EB4000114601EB62
:1006B000C000B0F90800002802DA4FF0FF3000E077
:1006C000012004EBC40101EB41018E4A02EBC101A0
:1006D000B1F8D010484301B204EBC40000EB400075
:1006E00002EBC000018104EBC40000EB400085492F
:1006F00011F8300040B9002104EBC40000EB4000C9
:10070000804A02EBC0000181042C04DA4FF400702F
:100710007D49086003E040F2FF107B49086000203B
:100720007949487208720820887204F00B0045006D
:1007300004EBC40000EB4000724901EBC0000189EA
:1007400071480B30415302466B1CD118501900F010
:10075000A8FA032C01D0072C03D16B49684802F09A
:10076000C9F870BD10B586B001AA0021644802F036
:10077000B6F99DF80C0000287DD19DF80C000028EA
:1007800079D19DF80E0008287CD10198B0F5007F42
:1007900078D90198B0F5027F74D80198401EC4B290
:1007A0005A4850F824005A4941F8240006F016FA35
:1007B000564941F82400084650F82400544951F89D
:1007C0002410401A534941F824009DF810009DF868
:1007D0000F1040EA012104EBC40000EB4000494A3D
:1007E00002EBC00041629DF812109DF8110041EA31
:1007F000002001B204EBC40000EB400002EBC0009B
:1008000081839DF814109DF8130041EA002001B285
:1008100004EBC40000EB400002EBC00001819DF836
:10082000151004EBC40000EB400002EBC000018592
:10083000204601F0F5F904EBC40000EB400031491B
:1008400001EBC00090F84600D8B9012104EBC400C8
:1008500000EB40002B4A02EBC00080F8461000215C
:1008600004EBC40000EB400002EBC000A0F8B410A1
:1008700004EBC40000E005E000EB400002EBC00028
:10088000016200BF02211E4802F047FB02211C4802
:1008900002F085FA06B010BDF0B585B007460D46EA
:1008A000002412200090019000208DF808008DF89F
:1008B00009008DF80A5000BF05E0395D0DF10B000D
:1008C0000155601C84B2AC42F7DB69460C4802F06B
:1008D00011F80646002401E0601C84B23146084845
:1008E00002F0A0F818B940F6FF708442F4DB40F63D
:1008F000FF70844210DB012005B0F0BD000402400F
:10090000006800402428002008010020C8000020C2
:10091000A8000020E80000200020EDE710B586B018
:1009200004464FF48230029000208DF80D00042020
:100930008DF80C008DF80E008DF80F0034B1932166
:100940008DF810104E218DF8111005E085218DF8DD
:10095000101046218DF8111001218DF8121001A9F7
:10096000024801F0C7FF06B010BD0000006800405B
:100970001CB50121022002F0ABFF4FF44070009043
:1009800001208DF8040000208DF8060002208DF86B
:10099000050069461A4802F055FD4FF48071184869
:1009A00002F0CCFD4FF40071154802F0C9FD1CBDEA
:1009B00070B50446112C00DD11241248055D002697
:1009C0001AE04FF480710E4802F0BAFD05F0010004
:1009D00028B14FF400710A4802F0B0FD04E04FF472
:1009E0000071074802F0ACFD4FF48071044802F03A
:1009F000A5FD6D10701CC6B2082EE2DB70BD0000B4
:100A000000040240B07000081CB50121084602F045
:100A10005FFFF020009001208DF8040002208DF887
:100A2000050000208DF8060001208DF807006946BA
:100A3000234802F007FD1020214908832020088365
:100A400040200883802008831CBD10B510201C495D
:100A500048834FF4FA6006F011F8202018494883C3
:100A60004FF4FA6006F00AF84020154948834FF425
:100A7000FA6006F003F88020114948834FF4FA60C9
:100A800005F0FCFF10200E4908834FF4FA6005F0D2
:100A9000F5FF20200A4908834FF4FA6005F0EEFFC5
:100AA0004020074908834FF4FA6005F0E7FF8020F3
:100AB000034908834FF4FA6005F0E0FF10BD000021
:100AC0000000024001204F4981F8600381F838049A
:100AD00081F8100581F8E80501214A4880F8611382
:100AE00080F8391480F8111580F8E9154FF47A7000
:100AF00005F0C4FF0121434880F8A51380F87D1458
:100B000080F8551580F82D1603E040F24C4005F0B2
:100B1000B5FFFAE703E04FF47A7005F0AFFFFAE7AC
:100B200003E04FF4C87005F0A9FFFAE705E0FFF70E
:100B30008CFF4FF4967005F0A1FFF8E703E04FF447
:100B40007A7005F09BFFFAE770B50446002500BFF8
:100B50000220FFF745FB0020FFF72AFF06F0CDF942
:100B600006F062F805460D23274A0021274805F0C4
:100B70003FFC1E23264A0021264805F039FC0A23A3
:100B8000254A0021254805F033FC0F23244A002183
:100B9000244805F02DFC0923234A0021234805F0B1
:100BA00027FC052005F0A2FE284606F041F870BD9E
:100BB00008B54FF4FA60FFF771FC03F087FE4FF4BD
:100BC000A06001F095FCFFF795FB002003230822AD
:100BD00019460090FFF784FCFFF7E8FAFFF7C8FE1C
:100BE000FFF712FF00F0C8F800F033F804F052F8F5
:100BF00005230F4A00210F4805F0FAFB04F071F9B4
:100C0000002008BD242800201C0D00203D0B0008FA
:100C10001C0F00202D0B00081C170020210B0008C2
:100C20001C1B0020150B00081C130020C50A00081F
:100C30001C050020490B000810B5082006F0ECF94F
:100C4000044600206060204610BD01203E494871E6
:100C5000704710B500F02AFAFFF7F7FF002019E0FF
:100C6000002100EB8002394B03EB4202517000EB94
:100C7000800203EB420291714FF47A7100EB800223
:100C800003EB42025180002100EB800203EB4202A1
:100C90009180401C0228E3DBFFF7CEFF2C4948601F
:100CA00010BD00220A7803780B700270704770B58F
:100CB00006460C46354600E06D6815B16868A042EE
:100CC000FAD14CB160686860204606F07DF9204892
:100CD0000078401E1E49087070BD02460B46114642
:100CE00005E00888984201D1084670474968002904
:100CF000F7D10020F9E72DE9F041074688463C4648
:100D000041462046FFF7E9FF08B1BDE8F081002623
:100D100002E06468701CC6B20D480078B04201DD84
:100D2000002CF6D16CB1082006F076F90546A5F83E
:100D3000008060686860656005480078401C044970
:100D4000087000BFE1E70000BE270020202500203A
:100D500004000020704706E04FF4FA70FFF79EFB96
:100D60000920FFF725FEF7E700BFFEE700BFFEE71B
:100D700000BFFEE7704770471FB50121022002F057
:100D8000DAFD42F6DF6002900720ADF80400002093
:100D9000ADF80600ADF80C0001A9304802F083FF61
:100DA000012211462D4803F01FFC01212B4803F0BE
:100DB00003F81D208DF8000001208DF801000020AF
:100DC0008DF8020001208DF80300684601F095FBC4
:100DD0001FBD10B50121214803F01DFC01283CD1A5
:100DE00001211E4803F028FC002432E004EBC4007B
:100DF00000EB40001A4911F8300028B304EBC4009E
:100E000000EB400001EBC0004078F0B104EBC400FF
:100E100000EB400001EBC0008078012806D00228DA
:100E200005D004280BD005280DD104E00CE020B239
:100E300000F079FC08E020B200F0D0FC04E020B221
:100E400000F03DFE00E000BF02E020B200F0C6FC72
:100E5000641C082CCADB00F0D5F810BD000400406B
:100E6000242800201CB54048006840F010003E498E
:100E700008603D481438006840F480003A4914394D
:100E800008600120022100230A46CDE900104FF43A
:100E9000C061364801F0C6F907220921334801F044
:100EA000A1F907220A21314801F09CF940F2D9202A
:100EB0002F4908814FF4037088810846008820F08C
:100EC00020000880032325220121062001F0FCF8E0
:100ED0004FF48070274B264A121D042100902648AB
:100EE00001F036F801221021234802F0D2F9032341
:100EF00046220021072001F0E7F81D48808A40F0D3
:100F000080001B4988820846808940F4005088810F
:100F10001CBD70B504460D461848807A78B92A463B
:100F20002146144806F01CF82946134802F045F9FA
:100F30000121114802F020F901201049887270BD8A
:100F400010B50F490C4802F0C1F901280AD10C492B
:100F5000094802F08AF90A49074802F0E1F900203D
:100F60000649887210BD000044380240000002406B
:100F7000001001403E250020B8640240BE2700203A
:100F800000800028002282610160C26100230362A8
:100F9000436280ED031A80ED010AC0ED020AC0ED44
:100FA000041A704701688269891AC161C269016ABD
:100FB000511A00EE101AB8EEC00AD0ED010A20EE68
:100FC000200A90ED021AC16900EE901AF8EEE00ACC
:100FD00001EE200AC269416A0A44016AA2EB41019A
:100FE00000EE901AF8EEE00A90ED031A01EE200AE6
:100FF000BDEEC00A10EE101A4161026A4262C26977
:101000000262704700204BE000EBC00101EB4101A0
:10101000254A02EBC101B1F90810002908DD00EBF7
:10102000C00101EB410102EBC101B1F9081009E077
:1010300000EBC00101EB41011B4A02EBC101B1F918
:101040000810494200EBC00202EB4202164B03EBD0
:10105000C202B2F8D020914220DD00EBC00101EBCA
:1010600041011A4602EBC101B1F90810002902DA68
:101070004FF0FF3100E0012100EBC00202EB420221
:10108000094B03EBC202B2F8D02051430AB200EB85
:10109000C00101EB410103EBC1010A81411CC8B24F
:1010A0000828B1DB704700002428002010B54FF459
:1010B0000050FE490880FE490880FE490880132040
:1010C000FA4988702420FA4988700120F94988700B
:1010D00043F69910F549888042F22830F449888017
:1010E00040F6C410F3498880B7EE000AEF4880ED5F
:1010F000020A9FEDF10AEE4880ED020AB7EE000AFF
:10110000084680ED020A0020EC4908709FEDEC0AC9
:10111000084680ED010A012008724FF47A70488178
:10112000012008734FF47A70C881400008820120C2
:1011300088740020C8744FF4FA60E2498883002064
:101140004860E148DA4BD3E900219B68C0E91413F9
:10115000C2640020DC49803908704870052088701E
:10116000002048606421D8488038418132210181C3
:10117000C168DFEDD61A9FEDD61ADFEDD60AB0EEC4
:101180000C0A4830FFF7FEFECF488038B0F90A104D
:10119000F7EE001A9FEDD01ADFEDD00AB1EE040A87
:1011A0007030FFF7EFFE1422C449C748183005F02D
:1011B000D7FEC548D830BE4B0ECB4C300EC00020F9
:1011C000C149803981F8D8000021BF48803880F8B3
:1011D000D910052180F8DA100021C0F8DC10642154
:1011E000A0F8E2103221A0F8E010C168DFEDB71AD4
:1011F0009FEDB71ADFEDB70AB0EE0C0A00F590705C
:10120000FFF7C0FEB0488038B0F90A10F7EE001AB8
:101210009FEDB11ADFEDB10AB1EE040A00F5A4703A
:10122000FFF7B0FE1422A549A748F03005F098FE5C
:10123000AB489F4BD3E900219B68C0E91413C264FB
:101240000020A149803981F8B00100219E488038F2
:1012500080F8B111052180F8B2110021C0F8B41155
:101260006421A0F8BA113221A0F8B811C168DFEDED
:10127000971A9FED971ADFED970AB0EE0C0A00F56A
:10128000FC70FFF77FFE90488038B0F90A10F7EE47
:10129000001A9FED911ADFED910AB1EE040A00F5F4
:1012A0000870FFF76FFE142284498D48183005F04E
:1012B00057FE8B48D8307E4B0ECB4C300EC00020F2
:1012C0008149803981F8880200217F48803880F880
:1012D0008912052180F88A120021C0F88C1264213D
:1012E000A0F892123221A0F89012C168DFED771AAF
:1012F0009FED771ADFED770AB0EE0C0A00F5347037
:10130000FFF740FE70488038B0F90A10F7EE001A77
:101310009FED711ADFED710AB1EE040A00F53E701F
:10132000FFF730FE142265496D48F03005F018FED5
:101330006C48604BD3E900219B68C0E91413C26478
:1013400000206149803981F8600300215E488038BF
:1013500080F86113052180F862136FF01201C0F864
:1013600064136421A0F86A133221A0F86813C168DD
:10137000DFED561A9FED561ADFED580AB2EE000A5D
:1013800000F56A70FFF7FEFD4F488038B0F90A108B
:10139000F7EE001A9FED4E1ADFED500AB2EE000A8A
:1013A00000F57470FFF7EEFD142244494D481830E3
:1013B00005F0D6FD4B48D8303E4B0ECB4C300EC01E
:1013C00000204149803981F8380400213E488038A6
:1013D00080F83914052180F83A146FF01201C0F832
:1013E0003C146421A0F842143221A0F84014C168D2
:1013F000DFED361A9FED361ADFED380AB2EE000A3D
:1014000000F59060FFF7BEFD2F488038B0F90A1054
:10141000F7EE001A9FED2E1ADFED300AB2EE000A49
:1014200000F59560FFF7AEFD142224492D48F030F9
:1014300005F096FD2C481D4B0ECB4C300EC0002005
:101440002149803981F8100500211F48803880F833
:101450001115052180F812151321C0F81415642107
:10146000A0F81A153221A0F81815C168DFED171A77
:101470009FED171ADFED190AB2EE000A00F5AB6016
:10148000FFF780FD10488038B0F90A10F7EE001A17
:101490009FED0F1ADFED110AB2EE000A00F5B06001
:1014A000FFF770FD142205490F481FE0D8270020E0
:1014B000CC270020E427002077BEC340F02700207F
:1014C0000000E14404280020A4280020CDCCCC3E1C
:1014D000000000008FC2F53DCDCC4C3E9A99993E5C
:1014E000542A0020042C0020B42D0020183005F0D0
:1014F00037FDFE48FE4B0ECB4C300EC00020FD49A0
:1015000081F8E8050021FB4880F8E915052180F8FD
:10151000EA151321C0F8EC156421A0F8F215322168
:10152000A0F8F015C1685FED171A1FED171A5FEDEF
:10153000150AB2EE000A00F5C660FFF723FDED487C
:10154000B0F90A10F7EE001A1FED1F1A5FED1D0A21
:10155000B2EE000A00F5CB60FFF714FD1422E64955
:10156000E248183005F0FCFC0024BAE004EBC400AB
:1015700000EB4000DF4901EBC000E0490968C0F81A
:10158000AC10DE48416804EBC40000EB4000D94ACF
:1015900002EBC000C0F8B01004EBC40101EB410144
:1015A00002EBC10101F1B4000A22D449083105F06F
:1015B000D7FCD248418A04EBC40000EB4000CD4A7E
:1015C00002EBC000A0F8BE1004EBC40000EB40002A
:1015D000114601EBC000AC30C84B59699A69DB6910
:1015E00014300EC004EBC40000EB4000C14901EB15
:1015F000C000D0ED270A04EBC40000EB400001EB73
:10160000C00090F8CE0000EE100AB8EE400A20EEBE
:10161000800A04EBC40000EB400001EBC000D0EDF9
:10162000350A60EE200A04EBC40000EB400001EB39
:10163000C000B0F8CC0000EE100AB8EE400A20EE70
:10164000800ADFEDAF0A80EE201ABCEEC10A04EB7F
:10165000C40000EB400001EBC00080ED2B0A04EB5E
:10166000C40000EB400001EBC000406800EE100A2F
:10167000B8EEC00A04EBC40000EB400001EBC00070
:10168000D0ED350A60EE200A04EBC40000EB400008
:1016900001EBC00090F8CE0000EE100AB8EE400A50
:1016A00060EE800A04EBC40000EB400001EBC000D8
:1016B000B0F8CC0000EE100AB8EE400A20EE800A26
:1016C000DFED8F0A80EE201ABDEEC10A10EE100A7F
:1016D00004EBC40101EB4101864A02EBC101C86081
:1016E000641C082CFFF642AF00208649C870887041
:1016F00048700871087000BF0BE044F62C4200EB04
:10170000C00101EB41017B4B03EBC101A1F8A22019
:10171000401C0428F1DB10BD002245210A5402625E
:1017200000218161704710B5044604EBC40000EB52
:101730004000704901EBC000D0ED200A04EBC4006A
:1017400000EB400001EBC000B0F90A0000EE100A07
:10175000B8EEC00A20EE800ABDEEC00A10EE100AF4
:1017600004EBC40101EB4101624A02EBC1010867CD
:1017700004EBC40000EB4000114601EBC000B0F9DF
:101780001E1004EBC40000EB400002EBC000C0F8E8
:10179000881004EBC40101EB410102EBC10101F12E
:1017A0007000FFF7FFFB04EBC40000EB4000514961
:1017B00001EBC000018904EBC40000EB40004D4A7E
:1017C00002EBC000D0F88400084401B204EBC4006E
:1017D00000EB400002EBC000018110BD10B50446D3
:1017E00004EBC40000EB4000424901EBC00040683C
:1017F00000EE100AB8EEC00A04EBC40000EB400093
:1018000001EBC000D0ED350A60EE200A04EBC40005
:1018100000EB400001EBC00090F8CE0000EE100A93
:10182000B8EE400A60EE800A04EBC40000EB400012
:1018300001EBC000B0F8CC0000EE100AB8EE400A90
:1018400020EE800ADFED2E0A80EE201ABDEEC10ADE
:1018500010EE100A04EBC40101EB4101254A02EB32
:10186000C101C86004EBC40000EB4000114601EB6D
:10187000C000C06804EBC40101EB410102EBC101EF
:10188000886404EBC40000EB4000114601EBC0008B
:10189000407870B904EBC40000EB400001EBC000DD
:1018A000D0F8B00004EBC40101EB410102EBC1012F
:1018B000886404EBC40000EB40000E4901EBC0005B
:1018C000016A04EBC40000EB40000A4A02EBC000CE
:1018D000016604EBC40101EB410102EBC10101F11E
:1018E0004800FFF75FFB04EBC4000DE08C2E0020E6
:1018F000D827002024280020F027002004280020DA
:101900000000B4430C00002000EB4000FE4901EB56
:10191000C000D0ED160A04EBC40000EB400001EB60
:10192000C000C06D00EE100AB8EEC00A20EE800ABA
:10193000BDEEC00A10EE100A04EBC40101EB410138
:10194000F14A02EBC101086704EBC40000EB400060
:10195000114601EBC00090F8A00088B304EBC4006E
:1019600000EB400001EBC000006F002807DD04EB36
:10197000C40000EB400001EBC000006F08E004EB86
:10198000C40000EB4000E04901EBC000006F4042A2
:1019900004EBC40101EB4101DB4A02EBC101B1F8E8
:1019A000A21088421FDD04EBC40000EB400011468A
:1019B00001EBC000006F002803DA4FF0FF3001E0B8
:1019C00011E0012004EBC40101EB4101CE4A02EB1E
:1019D000C101B1F8A210484304EBC40101EB41017D
:1019E00002EBC101086704EBC40000EB4000C649EC
:1019F00001EBC000B0F91E1004EBC40000EB400086
:101A0000C14A02EBC000C0F8881004EBC40101EB2E
:101A1000410102EBC10101F17000FFF7C3FA04EBD1
:101A2000C40000EB4000B84901EBC000018904EBA1
:101A3000C40000EB4000B44A02EBC000D0F88400C0
:101A4000084401B204EBC40000EB400002EBC0000C
:101A5000018104EBC40000EB4000114601EBC00023
:101A6000D0F8B800002808DD04EBC40000EB40000B
:101A700001EBC000D0F8B80009E004EBC40000EBB3
:101A80004000A14901EBC000D0F8B80040423C281A
:101A90000ADA012004EBC40101EB41019A4A02EB8E
:101AA000C10181F8400009E0002004EBC40101EB12
:101AB0004101954A02EBC10181F8400010BD10B50B
:101AC000044604EBC40000EB40008F4901EBC0006A
:101AD000B0F9A60004EBC40101EB41018A4A02EB14
:101AE000C101086704EBC40000EB4000114601EBA4
:101AF000C000B0F91E1004EBC40000EB400002EB84
:101B0000C000C0F8881004EBC40101EB410102EBF6
:101B1000C10101F17000FFF745FA04EBC40000EBCE
:101B20004000794901EBC000018904EBC40000EBDF
:101B30004000754A02EBC000D0F88400084401B2AE
:101B400004EBC40000EB400002EBC000018104EB99
:101B5000C40000EB4000114601EBC000B0F8B40037
:101B6000F0B904EBC40000EB400001EBC000006AD8
:101B700041F28831884213DD04EBC40000EB4000E1
:101B8000114601EBC000B0F8BC00401C81B204EB70
:101B9000C40000EB400002EBC000A0F8BC1009E05C
:101BA000002104EBC40000EB4000574A02EBC000E8
:101BB000A0F8BC1004EBC40000EB4000524901EB5C
:101BC000C000B0F8BC00642829DD002104EBC4008B
:101BD00000EB40004C4A02EBC000A0F8BC1004EB44
:101BE000C40000EB400002EBC0000162052004EBE2
:101BF000C40101EB410102EBC1018870012104EB3A
:101C0000C40000EB400002EBC00080F8411000204F
:101C100004EBC40101EB410102EBC101486010BDBE
:101C200010B5034603EBC30000EB4000364901EB5F
:101C3000C000416A03EBC30000EB4000324A02EBF4
:101C4000C000806B081A01B203EBC30000EB400038
:101C500002EBC000A0F8B41003EBC30000EB40009F
:101C6000114601EBC000806903EBC30101EB4101A8
:101C700002EBC101C86203EBC30000EB4000114658
:101C800001EBC000818B03EBC30000EB400002EBD3
:101C9000C000018603EBC30000EB4000114601EBDE
:101CA000C000C18B03EBC30000EB400002EBC0009F
:101CB000418603EBC30000EB4000114601EBC0007E
:101CC000016A03EBC30000EB400002EBC00041637C
:101CD00003EBC30000EB4000114601EBC000416A7A
:101CE00003EBC30000EB400002EBC000816303EB99
:101CF000C30000EB4000114601EBC000018D03EB77
:101D0000C30000EB400001E02428002002EBC000EB
:101D1000818703EBC30000EB4000114601EBC000DC
:101D2000B0F9B400002808DD03EBC30000EB40006D
:101D300001EBC000B0F9B40009E003EBC30000EB15
:101D40004000804901EBC000B0F9B400404241F2CC
:101D5000360188422CDD03EBC30000EB40007949DB
:101D600001EBC000B0F9B41003EBC30000EB40007E
:101D7000744A02EBC000B0F9B400002802DA4FF058
:101D8000FF3000E0012003EBC30202EB42026D4C86
:101D900004EBC202B2F8CC2000FB121001B203EB3C
:101DA000C30000EB4000224602EBC000A0F8B410D4
:101DB00003EBC30000EB4000624901EBC000016A85
:101DC00003EBC30000EB40005E4A02EBC000B0F939
:101DD000B400014403EBC30000EB400002EBC00081
:101DE000016203EBC30000EB4000114601EBC000B1
:101DF000C16803EBC30000EB400002EBC000006AC7
:101E0000091A03EBC30000EB400002EBC000C0F86E
:101E1000B81003EBC30000EB4000114601EBC0001B
:101E2000006A00EE100AB8EEC00ADFED470A60EE65
:101E3000200A03EBC30000EB400001EBC00090F868
:101E4000CE0000EE100AB8EE401A80EE810A03EBD5
:101E5000C30000EB400001EBC00090ED351AC0EE6E
:101E6000010A03EBC30000EB400001EBC000B0F837
:101E7000CC0000EE100AB8EE400A80EE801ABDEEEB
:101E8000C10A10EE100A03EBC30101EB410102EBA2
:101E9000C101886103EBC30000EB4000114601EB78
:101EA000C000407870B103EBC30000EB400001EBD1
:101EB000C000016A03EBC30000EB400002EBC0006E
:101EC000C0F8B01003EBC30000EB40001D4901EB6C
:101ED000C00090F8450040B103EBC30101EB4101A4
:101EE000184A02EBC100FFF717FC10BD30B585B0F2
:101EF00004460D4640F2FF10009000208DF80800C7
:101F00008DF8090008208DF80A00280A8DF80B00CA
:101F1000E9B28DF80C1000218DF80D108DF80E101F
:101F2000210A8DF80F10E1B28DF8101000218DF804
:101F300011108DF812106946044800F0DBFC05B062
:101F400030BD0000242800200000B4430068004099
:101F50002DE9F0410C461546069E4C4FB84209D972
:101F600039464B4F3F6847F48007DFF824C1CCF86F
:101F7000007008E04749464F3F6847F40017DFF814
:101F800010C1CCF8007000BF076807F00107002FF0
:101F9000FAD1471A103F4FF0180CB7FBFCF7FAB212
:101FA000062A10DBCF68A2F1060C0CEB4C0C4FEAB2
:101FB0004C0C0CF1100C4FF03D0808FA0CF847EAF5
:101FC0000807CF602FE0042A0EDBCF68A2F1040CD3
:101FD0000CEB4C0C4FEA4C084FF03D0C0CFA08FC93
:101FE00047EA0C07CF601EE0022A10DB8F68A2F1DF
:101FF000020C0CEB4C0C4FEA4C0C0CF1100C4FF09B
:102000003D0808FA0CF847EA08078F600BE08F6874
:1020100002EB420C4FEA4C084FF03D0C0CFA08FC66
:1020200047EA0C078F608560C36046600027076041
:10203000076847F0400707600768076007680760A0
:10204000076847F4806707600768076007680760EC
:10205000076847F48037076007680760076807600C
:10206000076847EA44670760BDE8F081026822F02C
:102070000102026000BF026802F00102002AFAD1E8
:102080004160026842F00102026070470064024051
:1020900030380240006002404A0A52020243FE4BBE
:1020A0001A6070470146072323EA01021202FA4B25
:1020B0001B1D18684FF6FF031840F84B18431043D8
:1020C000F54B1B1D186070472DE9F0410746884607
:1020D00014461D462846FFF7E5FFC5F1040007FA40
:1020E00000F60F20284100EA0800064306F00F061C
:1020F000E21704EBD2625211920002F1E022D2F810
:1021000000212146E31704EBD3635B11A4EB431CCE
:10211000012303FA0CF31A432046E31704EBD363BD
:102120005B119B0003F1E023C3F80021DC48005D54
:1021300040EA0610DA490855BDE8F081F0B50346DB
:102140000846CD1701EB9575AD10A1EB8505AD06E1
:102150002C0ED448006840F48040D24D2860CD1742
:1021600001EB9575AE10D04D55F826500F26A640C0
:10217000B5430846CE1701EB9676B710CA4E46F81F
:102180002750CD1701EB9575AE10C74D55F8265069
:1021900003FA04F63543CE1701EB9676B710C24E1C
:1021A00046F82750C148006801258D402843BF4D9F
:1021B000286002F0010040B1BC480C3000680125E5
:1021C0008D402843B94D0C35286002F0020040B123
:1021D000B6480830006801258D402843B34D0835C6
:1021E0002860F0BD30B5CC1000F1200353F8243046
:1021F0004C07E50E0F24AC40A343CD1000F12004A2
:1022000044F82530CC1000F1200353F824304C075B
:10221000E40E02FA04F42343CD1000F1200444F844
:10222000253030BD2DE9F0470C46DDE90867002177
:1022300000258C4600BF60E04FF0010808FA01F568
:1022400004EA050CAC4557D1D0F800804FEA410AAA
:102250004FF0030909FA0AF928EA0908C0F80080D2
:10226000D0F800804FEA410902FA09F948EA090862
:10227000C0F80080012A01D0022A27D1D0F80880B6
:102280004FEA410A4FF0030909FA0AF928EA090856
:10229000C0F80880D0F808804FEA410906FA09F929
:1022A00048EA0908C0F80880D0F804904FF0010807
:1022B00008FA01F829EA0809C0F80490D0F8048067
:1022C00003FA01F948EA0908C0F80480D0F80C8044
:1022D0004FEA410A4FF0030909FA0AF928EA090806
:1022E000C0F80C80D0F80C804FEA410907FA09F9D0
:1022F00048EA0908C0F80C80491C10299CD3BDE8A5
:10230000F08710B564480830006840F00400624966
:10231000083108606348001F006840F08050614940
:10232000091F08606248406840F480706049486056
:102330000846006840F0040008600846006840F065
:1023400002000860FDF72AFF10BD5448001D5249E5
:10235000091D08607047F0B504460D4600210020B5
:10236000504E443E366846F480364E4F443F3E6001
:1023700001E04E1CB1B24B4E443E366806F40036C6
:102380001EB941F6FF76B142F3DB41F6FF76B1426A
:1023900001D1012063E0434E361F366846F0805677
:1023A000404F3F1F3E60424E366846F44046404F25
:1023B0003E603C4E3C3E366846F41446394F3C3F46
:1023C0003E60384E443E366826F08076354F443FB6
:1023D0003E6045EA84160127C7EB520746EA0746E6
:1023E00046EA036646F480062E4F403F3E603E1F9D
:1023F000366846F080763F1F3E6000BF294E443E5F
:10240000366806F00076002EF8D02A4E366846F47C
:102410008076284F3E603E46366846F400763E6041
:102420003E46366846F480663E603E46366846F074
:1024300005063E601B4E3C3E366826F00306194FEB
:102440003C3F3E603E46366846F002063E6000BFB6
:10245000144E3C3E366806F00C06082EF8D1F0BD4E
:10246000F0B504460D4616461F460E48443800682F
:1024700040F001000B4944390860002009493C390B
:1024800008600848443800680B4908400549443949
:1024900008600A48091D13E008ED00E00000FA0595
:1024A00000E400E04438024008380140003C0140AC
:1024B00000700040003C0240FFFFF6FE1030002498
:1024C0000860081F006820F48020091F08600020B1
:1024D000064908603B46324629462046FFF73BFF47
:1024E00000210846FFF7D8FDF0BD00000C3802407F
:1024F00032490143324A1160704770B50021002310
:102500000F22C4781CB32E4C246804F4E064C4F594
:10251000E064C4F30721C1F10404E3B20A41447842
:102520009C40E1B28478144021430C07210E254CD5
:1025300005786155047804F01F050124AC40057846
:102540006D11AD0005F1E025C5F8004109E0047802
:1025500004F01F050124AC401B4D0678761145F8A8
:10256000264070BD194A0A400243154B1B1F1A60D2
:10257000704739B1124A121D12680243104B1B1DDD
:102580001A6006E00E4A121D126882430C4B1B1D96
:102590001A607047042808D14FF0E021096941F022
:1025A00004014FF0E022116107E04FF0E0210969DA
:1025B00021F004014FF0E022116170470000FA059C
:1025C0000CED00E000E400E080E100E080FFFF1F90
:1025D00010B50446FE48844209D10121480601F0A5
:1025E00012FA00214FF0007001F00DFA08E001210D
:1025F000880601F008FA00214FF0806001F003FA2C
:1026000010BD30B5024600200023146824F00204F7
:102610001460146844F00104146000E05B1C54680A
:1026200004F001041CB94FF6FF74A342F6D15468BC
:1026300004F001040CB900206CE08C79012C04D169
:10264000146844F08004146003E0146824F08004EB
:102650001460CC79012C04D1146844F04004146057
:1026600003E0146824F0400414600C7A012C04D1B7
:10267000146844F02004146003E0146824F020047B
:1026800014604C7A012C04D1146844F010041460D6
:1026900003E0146824F0100414608C7A012C04D137
:1026A000146844F00804146003E0146824F008047B
:1026B0001460CC7A012C04D1146844F00404146032
:1026C00003E0146824F0040414608C78A407CD7827
:1026D00044EA05640D7944EA05444D7944EA055419
:1026E0000D886D1E2C43D461146824F0010414601D
:1026F000002300E05B1C546804F001041CB14FF699
:10270000FF74A342F6D1546804F001040CB1002018
:1027100000E0012030BD10B50021837A012202FAC9
:1027200003F1AC4A126842F00102AA4B1A60A94AAE
:102730001C3212688A43A74B1C331A60027BCAB949
:10274000A44A0C3212688A43A24B0C331A604288A6
:10275000C38842EA03439F4A4032847A42F83430C5
:102760000288838842EA03439A4A4032847A02EB21
:10277000C4025360027B012A19D1964A0C321268B6
:102780000A43944B0C331A604288038842EA03439D
:10279000904A4032847A42F83430C288838842EAD0
:1027A00003438C4A4032847A02EBC4025360C27AFB
:1027B0003AB9884A121D12688A43864B1B1D1A605B
:1027C00006E0844A121D12680A43824B1B1D1A60E0
:1027D000028932B97F4A143212688A437D4B14331E
:1027E0001A600289012A06D17A4A143212680A4311
:1027F000784B14331A60427B012A06D1754A1C3289
:1028000012680A43734B1C331A60724A126822F032
:102810000102704B1A6010BD00218171C1710172FB
:1028200041728172C1728170C170032101710221F4
:1028300041710121018070476649096841F0010139
:10284000644A11601146096843F60E729143614A69
:1028500011601146096841EA0021116011460968BA
:1028600021F001011160704721B1026842F4803209
:10287000026003E0026822F4803202607047E1B136
:10288000026842F0800202604FF4C272125842F4B1
:1028900080734FF4C27213504FF4CA72125842F44C
:1028A00080734FF4CA7213504FF4D272125842F42C
:1028B00080734FF4D27213501BE0026822F0800242
:1028C00002604FF4C272125822F480734FF4C27245
:1028D00013504FF4CA72125822F480734FF4CA7224
:1028E00013504FF4D272125822F480734FF4D27204
:1028F0001350704710B502460020936803F08063C0
:10290000B3F1806F00D110E0936803F00063B3F17E
:10291000006F01D1012008E0936803F08053B3F108
:10292000805F01D1022000E00420042879D002F564
:10293000C07303EB00131B6803F0010402F5C073BE
:1029400003EB00131C600B7A7BB94B7A0C8843EACB
:10295000445302F5C07404EB00142468234302F5C9
:10296000C07404EB0014236010E00B7A4C6843EA57
:10297000C4034C7A234302F5C07404EB00142468AA
:10298000234302F5C07404EB001423608B7A03F038
:102990000F038B7202F5C07303EB00135B6823F027
:1029A0000F0402F5C07303EB00135C6002F5C07303
:1029B00003EB00135B688C7A234302F5C07404EBCD
:1029C000001463608B7B1C064B7B44EA034403E0EA
:1029D00000640040006600400B7B44EA0323CC7A8D
:1029E000234302F5C07404EB0014A3608B7C1C0627
:1029F0004B7C44EA03440B7C44EA0323CC7B234313
:102A000002F5C07404EB0014E36002F5C07303EB3D
:102A100000131B6843F0010402F5C07303EB0013BD
:102A20001C6010BD10B50246002321B1012907D05A
:102A300002290FD109E09068F94C00EA04030BE089
:102A40009068F84C00EA040306E09068F64C00EA4F
:102A5000040301E0002300BF00BFF44C181BA34295
:102A600016D007DC83B16FF08060184470B1022883
:102A700018D111E0B0F5007F10D0ED4C204448B1E2
:102A8000B0F5003F0ED10BE002230DE000230BE078
:102A9000002309E0002307E0012305E0012303E010
:102AA000012301E0002300BF00BFD8B210BD21B157
:102AB000012907D002290FD109E0826842F0800283
:102AC00082600AE0826842F40042826005E0826827
:102AD00042F40002826000E000BF00BF704710B502
:102AE00000F5D87303EB01131B6803F004031372A2
:102AF000137A53B900F5D87303EB01131B6840F246
:102B0000FF7404EA5353136009E000F5D87303EB34
:102B100001131B686FF0604404EAD303536000F5AF
:102B2000D87303EB01131B6803F00203537200F523
:102B3000D87303EB01135B6803F00F03937200F586
:102B4000D87303EB01135B681B0AD37400F5D873C9
:102B500003EB01139B68D37200F5D87303EB0113E9
:102B60009B681C0A147300F5D87303EB01139B6870
:102B70001C0C547300F5D87303EB01139B681B0EF8
:102B8000937300F5D87303EB0113DB68D37300F57F
:102B9000D87303EB0113DB681C0A147400F5D873B7
:102BA00003EB0113DB681C0C547400F5D87303EBC2
:102BB0000113DB681B0E937421B9C36843F0200333
:102BC000C36003E0036943F02003036110BD21B932
:102BD000C26842F02002C26003E0026942F02002B3
:102BE000026170470246002019B9D36803F0030060
:102BF00006E0012903D1136903F0030000E000207F
:102C0000704710B502460B4600204FF6FF71BBB966
:102C1000146824F0020444F00104146000E0491E2A
:102C2000546804F00304012C01D00029F7D1546842
:102C300004F00304012C01D0002032E0012030E038
:102C4000012B13D1146824F00304146000E0491E22
:102C5000546804F003040CB10029F8D1546804F05E
:102C600003040CB100201CE001201AE0022B17D154
:102C7000146824F0010444F00204146000E0491ECA
:102C8000546804F00304022C01D00029F7D15468E1
:102C900004F00304022C01D0002002E0012000E037
:102CA000002010BD014600200A6822F0010242F017
:102CB00002020A604A6802F00302022A00D10120DF
:102CC000704701464FF6FF7200200B6823F00203A5
:102CD0000B6000E0521E4B6803F00203022B01D18F
:102CE000002AF7D14B6803F00203022B00D0012029
:102CF0007047014600208A6902F070007047014663
:102D000000208A69100E7047014600208A69C2F3CC
:102D1000074070471AB143690B43436102E04369BE
:102D20008B434361704710B50246002001F47003E5
:102D300043B19369C1F3130423400BB101202DE08B
:102D400000202BE001F0807343B15368C1F31304FA
:102D500023400BB1012021E000201FE001F00063BF
:102D600043B19368C1F3130423400BB1012015E074
:102D7000002013E001F0007343B1D368C1F31304E2
:102D800023400BB1012009E0002007E01369C1F3E3
:102D9000130423400BB1012000E0002010BD0022ED
:102DA000244B994202D10023836111E0C1F3130245
:102DB00001F000730BB1C2600AE001F080630BB157
:102DC000026105E001F000630BB1826000E0426047
:102DD00070470246002002EA01030BB1012000E027
:102DE0000020704770B504460D46002660692840F3
:102DF000002872D0B5F5807F69D01DDC082D42D047
:102E000006DC012D2DD0022D31D0042D7FD134E0F0
:102E1000102D3ED0202D42D0402D78D145E000002D
:102E20000300000400030008000003100001000874
:102E30000001FFF77000F030B5F5004F61D009DCFC
:102E4000B5F5007F4AD0B5F5806F4DD0B5F5006F70
:102E50005DD150E0B5F5803F2DD0B5F5003F56D19E
:102E60002FE0A0685549FFF7B4FF064651E0E0683F
:102E70000321FFF7AEFF06464BE0E0680821FFF7AD
:102E8000A8FF064645E0E0681021FFF7A2FF0646CE
:102E90003FE020690321FFF79CFF064639E02069E7
:102EA0000821FFF796FF064633E020691021FFF75F
:102EB00090FF06462DE060680821FFF78AFF06466E
:102EC00027E060681021FFF784FF064621E0A06933
:102ED0000121FFF77EFF06461BE01BE0A0690221EF
:102EE000FFF777FF064614E0A0690421FFF771FFA2
:102EF00006460EE00BE0A0697021FFF76AFF064668
:102F000007E060680421FFF764FF064601E0002641
:102F100000BF00E00026304670BDB1F5007F3AD01A
:102F20000FDC202928D006DC01291CD004291DD063
:102F3000082940D11DE0402921D0B1F5807F3AD148
:102F400026E0B1F5004F31D006DCB1F5806F25D019
:102F5000B1F5006F2FD124E0B1F5803F12D0B1F56B
:102F6000003F28D111E0154A826025E00822C260A6
:102F700022E01022C2601FE0082202611CE0102241
:102F8000026119E00822426016E01022426013E05C
:102F90000422426010E0042242600DE004224260FC
:102FA0000AE0002282610422426005E00022826180
:102FB0000422426000E000BF00BF70470101010031
:102FC000016821F001010160002101604160816020
:102FD000C160016121214161DB49884204D13D2169
:102FE000D94A103A91608CE0D7491831884205D10E
:102FF0004FF47461D44A103A916082E0D249303182
:10300000884205D14FF47411CF4A103A916078E0AC
:10301000CD494831884205D14FF07461CA4A103A0F
:1030200091606EE0C8496031884204D1C749C64A00
:10303000103AD16065E0C4497831884204D1C4496E
:10304000C14A103AD1605CE0BF499031884204D156
:10305000C049BD4A103AD16053E0BB49A83188420B
:1030600005D14FF03D51B84A103AD16049E0BA4914
:10307000884204D13D21B84A083A116041E0B6497E
:103080001831884205D14FF47461B34A083A11608F
:1030900037E0B1493031884205D14FF47411AE4A5E
:1030A000083A11602DE0AC494831884205D14FF013
:1030B0007461A94A083A116023E0A7496031884247
:1030C00004D1A249A44A121F11601AE0A249783122
:1030D000884204D19E49A04A121F116011E09E4906
:1030E0009031884204D19B499B4A121F116008E02D
:1030F0009949A831884204D14FF03D51964A121F98
:103100001160704710B500220268944B1A40CC68D9
:103110000B6823434C6923438C692343CC692343C5
:103120000C6A23434C6A23438C6A23434C6B23432E
:103130008C6B23431A430260426922F00702D1E9F3
:103140000B3423431A4342610B6943604B6883602D
:103150008B68C36010BD0021016041608160C16067
:10316000016141618161C161016241628162C1624B
:10317000016341638163704721B1026842F001023B
:10318000026003E0026822F001020260704721B190
:10319000026842F40042026003E0026822F4004246
:1031A0000260704721B1026842F02002026003E031
:1031B000026822F0200202607047416070470146B9
:1031C000486880B2704722B1036843F4002303606B
:1031D00003E0036823F4002303600161704721B119
:1031E000026842F48022026003E0026822F4802236
:1031F000026070470AB1016100E0C160704701469A
:1032000000200A6802F400220AB1012000E0002038
:103210007047014600200A6802F001020AB101204D
:1032200000E000207047014600204A6902F03800A3
:10323000704730B503460A4600200024464DAB4295
:1032400002D24149103901E04349103902F00055DA
:103250000DB14C6800E00C68414D2C4004EA0205B9
:103260000DB1012000E0002030BD02463A4B9A42E9
:1032700002D23548103801E03748103801F00053C9
:103280001BB1374B0B40C36002E0354B0B408360F2
:10329000704710B501F080034BB122B1436943F090
:1032A0008003436103E0436923F080034361802985
:1032B0000BD02AB1036801F01E042343036004E02D
:1032C000036801F01E04A343036010BD70B50246FD
:1032D000002000240025204EB24202D21A4B103B9F
:1032E00001E01D4B103B1F4E0E4036B11E2606EA74
:1032F000D124166806EA040502E0566906F0800546
:1033000001F000560EB15C6800E01C68144E3440B9
:1033100004EA010616B10DB1012000E0002070BDE5
:1033200002460D4B9A4202D20748103801E00A4883
:10333000103801F000531BB1094B0B40C36002E091
:10334000074B0B4083607047106002403D00002037
:10335000400F002000003D20106402403F801CF020
:103360007D0F7D0F3C0F3C0F10B504468C48844206
:1033700008D10121084600F000FB0021012000F0E7
:10338000FCFA5EE08748844208D10121022000F067
:10339000F4FA0021022000F0F0FA52E08248844260
:1033A00008D10121042000F0E8FA0021042000F0F7
:1033B000E4FA46E07D48844208D10121082000F06B
:1033C000DCFA0021082000F0D8FA3AE0784884427C
:1033D00008D10121102000F0D0FA0021102000F0C7
:1033E000CCFA2EE07348844208D10121202000F05D
:1033F000C4FA0021202000F0C0FA22E06E48844286
:1034000008D10121402000F0B8FA0021402000F04E
:10341000B4FA16E06948844208D10121802000F006
:10342000ACFA0021802000F0A8FA0AE06448844247
:1034300007D10121801500F0A0FA0021A01500F0AD
:103440009CFA10BDF0B50A4600210023002400BFFD
:103450003DE0012505FA01F3156805EA03049C42E5
:1034600034D105684F000326BE40B5430560157989
:103470004E00B5400668354305601579012D02D030
:103480001579022D16D185684F000326BE40B5433D
:10349000856055794E00B54086683543856045683E
:1034A00001268E40B5434560456896798E40B6B298
:1034B00035434560C5684F000326BE40B543C5602F
:1034C000D5794E00B540C6683543C560491C102902
:1034D000BFD3F0BD4FF6FF71016000210171417152
:1034E0008171C171704708B54FF480320092009A23
:1034F0000A430092009AC261C161009AC261C26926
:103500000092C269009208BD0246002013690B4078
:103510000BB1012000E0002070470146086980B22D
:1035200070470246002053690B400BB1012000E0B8
:10353000002070470146486980B270470183704798
:10354000418370470AB1018300E0418370474161C4
:10355000704742694A4042617047F0B50023002439
:103560004D07ED0E02FA05F3CE1000F1200555F8D7
:1035700026504E07F70E0F26BE40B543CF1000F180
:10358000200646F82750CE1000F1200555F82650A9
:1035900045EA0304CE1000F1200545F82640F0BDB1
:1035A000000002400004024000080240000C0240FB
:1035B000001002400014024000180240001C0240AB
:1035C00000200240FA48006840F00100F849086015
:1035D0000020F74908310860F5480068F5490840BF
:1035E000F3490860F448091D0860081F006820F4CA
:1035F0008020091F08600020ED490C3108607047E9
:103600000021EB4A921C117011460870704710B5EA
:1036100001460022002300204A11012A02D1E44C75
:10362000236808E0022A03D1E14C7034236802E0E9
:10363000DF4C7434236801F01F02012494401C40C5
:103640000CB1012000E0002010BD38B50020009032
:103650000024002500BF3120FFF7D9FF0546009860
:10366000401C00900098B0F5A06F01D0002DF2D062
:103670003120FFF7CCFF08B1012400E000242046F0
:1036800038BD01460020CA4A106820F0F80040EA20
:10369000C10010607047C949086070470021C44AE2
:1036A000703211701170012802D004280AD104E090
:1036B0000121BF4A7032117005E00521BC4A703209
:1036C000117000E000BF00BF7047BD49086070473F
:1036D00070B5049C41EA82150126C6EB530645EA03
:1036E0000645054345EA0465B14E361D356070BD9B
:1036F000B24908667047820142EA0172AC4B8433DA
:103700001A607047AD4988667047AC49C864704715
:1037100002460020A64B0833186820F0EC6042EA0D
:1037200001031843A24B083318607047024600207B
:103730009F4B0833186820F0784042EA0103184391
:103740009B4B08331860704701460020984A0832A6
:10375000106820F003000843106070479448083058
:10376000006800F00C00704701460020904A0832C3
:10377000106820F0F00008431060704701460020F8
:103780008B4A0832106820F4E050084310607047FC
:1037900001460020864A0832106820F4604040EA62
:1037A000C10010607047F0B50021002200240225FE
:1037B000002602237E4F08373F6807F00C0121B135
:1037C000042905D0082937D105E07E4F076036E08F
:1037D0007D4F076033E0764F3F1D3F68C7F380564B
:1037E000734F3F1D3F6807F03F036EB1764FB7FB45
:1037F000F3F7DFF8BCC10CF1040CDCF800C0CCF32B
:10380000881C07FB0CF40CE06E4FB7FBF3F7DFF8F6
:10381000A0C10CF1040CDCF800C0CCF3881C07FB41
:103820000CF4634F3F1D3F68C7F301477F1C7D00C9
:10383000B4FBF5F7076002E0624F076000BF00BF0E
:103840005B4F08373F6807F0F00109095F4F7A5C6A
:103850000768D7404760564F08373F6807F4E05184
:10386000890A5A4F7A5C4768D7408760504F0837BB
:103870003F6807F46041490B544F7A5C4768D74072
:10388000C760F0BD002100F44072B2F5407F0AD15C
:10389000474A0832116821F4F8114D4A0240114399
:1038A000434A08321160424A70321268C0F30B0377
:1038B0001A433F4B70331A607047414944390860DE
:1038C00070473F4940390860704742490860704777
:1038D00039B1374A303212680243354B30331A60FF
:1038E00006E0334A303212688243314B30331A607B
:1038F000704739B12E4A3432126802432C4B3433AC
:103900001A6006E02A4A343212688243284B343364
:103910001A60704739B1264A383212680243244B84
:1039200038331A6006E0224A383212688243204B4C
:1039300038331A60704739B11D4A40321268024369
:103940001B4B40331A6006E0194A4032126882432A
:10395000174B40331A60704739B1154A4432126828
:103960000243134B44331A6006E0114A4432126892
:1039700082430F4B44331A60704739B10C4A1032FE
:10398000126802430A4B10331A6006E0084A1032EC
:1039900012688243064B10331A607047E1B1044A43
:1039A000143212680243024B14331A6019E000000B
:1039B00000380240FFFFF6FE1030002400004742AE
:1039C000800E47420024F40040787D012C00002046
:1039D000FFFCFF0F5C0147425B4A126882435A4B6F
:1039E0001A60704739B1584A121D12680243564B8B
:1039F0001B1D1A6006E0544A121D12688243524B86
:103A00001B1D1A60704739B14F4A0C3212680243CD
:103A10004D4B0C331A6006E04B4A0C32126882435D
:103A2000494B0C331A60704739B1474A103212685B
:103A30000243454B10331A6006E0434A10321268C5
:103A40008243414B10331A60704739B13E4A3C32D1
:103A5000126802433C4B3C331A6006E03A4A3C325F
:103A600012688243384B3C331A60704739B1364A8A
:103A7000403212680243344B40331A6006E0324A47
:103A8000403212688243304B40331A60704739B17C
:103A90002D4A4432126802432B4B44331A6006E02D
:103AA000294A443212688243274B44331A607047D4
:103AB00039B1254A4C3212680243234B4C331A6009
:103AC00006E0214A4C32126882431F4B4C331A6085
:103AD000704739B11C4A5032126802431A4B5033B6
:103AE0001A6006E0184A503212688243164B50336F
:103AF0001A60704739B1144AD21F12780243124B30
:103B0000DB1F1A7006E0104AD21F127882430E4B58
:103B1000DB1F1A7070470C486030006840F08070FE
:103B2000094960310860704701460020064A083A9A
:103B300012680A400AB1012000E0002070470249E3
:103B4000891F0870704700001438024010B5044601
:103B5000FE48844208D101210846FFF765FF002195
:103B60000120FFF761FF9DE0B4F1804F08D10121F2
:103B70000846FFF748FF00210120FFF744FF91E0CE
:103B8000F348844208D101210220FFF73CFF0021C5
:103B90000220FFF738FF85E0EE48844208D101217A
:103BA0000420FFF730FF00210420FFF72CFF79E00D
:103BB000E948844208D101210820FFF724FF0021B1
:103BC0000820FFF720FF6DE0E448844208D101217E
:103BD0001020FFF718FF00211020FFF714FF61E00D
:103BE000DF48844208D101212020FFF70CFF00218B
:103BF0002020FFF708FF55E0DA48844208D1012170
:103C00000220FFF711FF00210220FFF70DFF49E01E
:103C1000D548844209D101210804FFF705FF00219E
:103C20004FF48030FFF700FF3CE0D048844209D1D8
:103C300001214804FFF7F8FE00214FF40030FFF7A0
:103C4000F3FE2FE0CA48844209D101218804FFF71E
:103C5000EBFE00214FF48020FFF7E6FE22E0C5488E
:103C6000844208D101214020FFF7CDFE00214020F1
:103C7000FFF7C9FE16E0C048844208D10121802028
:103C8000FFF7C1FE00218020FFF7BDFE0AE0BB4820
:103C9000844207D101218015FFF7B5FE0021A01550
:103CA000FFF7B1FE10BD00220288A84B98420ED04B
:103CB000AC4B98420BD0B0F1804F08D0A44B984247
:103CC00005D0A44B984202D0A34B984204D14FF6A2
:103CD0008F731A404B881A43A04B984207D0A04BD1
:103CE000984204D04FF6FF431A400B891A430280D2
:103CF0004B68C3620B880385944B984202D0994B62
:103D0000984201D18B7A03860123838270474FF05A
:103D1000FF31416000210180018141808172704743
:103D20000185828270470A46002101884FF68F7311
:103D3000194011430180704741627047C16270476A
:103D40000146486A70470146088D704721B10288D4
:103D500042F00202028004E002884FF6FD731A402E
:103D60000280704721B1028842F00402028004E020
:103D700002884FF6FB731A400280704721B1028817
:103D800042F08002028004E002884FF67F731A40FE
:103D90000280704702884FF6F7731A40028002884B
:103DA0000A430280704702884FF6FF431A400280A0
:103DB00002880A430280704721B1028842F0010262
:103DC000028004E002884FF6FE731A4002807047BA
:103DD00070B5002400220023058C4FF6FE76354096
:103DE0000584028C8388048B4FF68F752C40B51E9A
:103DF0002C400D882C43751E2A408D892A434D88FE
:103E00002A43524DA84202D0564DA84213D14FF634
:103E1000F7752A40CD892A434FF6FB752A408D88D5
:103E20002A434FF6FF652B404FF6FF552B400D8A76
:103E30002B434D8A2B43838004838D684563028422
:103E400070BD70B5002400220023058C4FF6EF767C
:103E500035400584028C8388048B48F6FF752C401E
:103E60004FF6FF452C400D884FF6FF7606EA0525F4
:103E70002C434FF6DF752A408D8906EA05152A4343
:103E80004D8806EA05152A43304DA84202D0354D2B
:103E9000A8421DD14FF67F752A40CD894FF6FF7697
:103EA00006EA05152A434FF6BF752A408D8806EAB3
:103EB00005152A434FF6FF352B404FF2FF752B4077
:103EC0000D8A06EA85052B434D8A06EA85052B43B4
:103ED000838004838D688563028470BD70B500247F
:103EE00000220023058C4FF6FF6635400584028CC6
:103EF0008388848B4FF68F752C404FF6FC752C40D1
:103F00000D882C434FF6FF552A408D894FF6FF76DA
:103F100006EA05252A434D8806EA05252A430B4D66
:103F2000A84202D00F4DA84238D14FF2FF752A4067
:103F3000CD894FF6FF7606EA05252A434FF6FF3571
:103F40002A408D8806EA05252A4319E00000014031
:103F50000004004000080040000C00400010004039
:103F600000140040000401400040014000440140B2
:103F70000048014000180040001C004000200040A4
:103F80004EF6FF752B404DF6FF752B400D8A06EA65
:103F900005152B434D8A06EA05152B438380848340
:103FA0008D68C563028470BD70B5002200230024B3
:103FB000058C4EF6FF7635400584038C8488828B11
:103FC00048F6FF752A404FF6FF452A400D884FF608
:103FD000FF7606EA05252A434DF6FF752B408D89AD
:103FE00006EA05352B434D8806EA05352B43FE4D81
:103FF000A84202D0FD4DA84208D14BF6FF752C40D7
:104000000D8A4FF6FF7606EA85152C43848082835D
:104010008D680564038470BD00210180418081802A
:1040200081608181C18101824182704770B5034600
:10403000002000241846183001258D40ACB21D8C9C
:10404000A5431D8409B108290AD100EB6100056868
:104050004FF68F76354005600568154305600FE023
:104060000D1FC5F34E052844056848F6FF76354018
:10407000056005684FF6FF7606EA022635430560BF
:1040800070BD4163704781637047C16370470164CD
:1040900070470A460021018B4FF68F731940114378
:1040A000018370470A460021018B48F6FF731940CF
:1040B0004FF6FF7303EA02231943018370470A4650
:1040C0000021818B4FF68F73194011438183704714
:1040D0000A460021818B48F6FF7319404FF6FF73A3
:1040E00003EA02231943818370470A460021018BAA
:1040F0004FF6F77319401143018370470A460021B8
:10410000018B4FF2FF7319404FF6FF7303EA02234E
:104110001943018370470A460021818B4FF6F773DC
:1041200019401143818370470A460021818B4FF269
:10413000FF7319404FF6FF7303EA0223194381838B
:1041400070470A460021018B4FF6FB73194011435B
:10415000018370470A460021018B4FF6FF33194057
:104160004FF6FF7303EA02231943018370470A469F
:104170000021818B4FF6FB731940114381837047F7
:104180000A460021818B4FF6FF3319404FF6FF732B
:1041900003EA02231943818370470A460021018BF9
:1041A0004FF67F7319401143018370470A4600217F
:1041B000018BC1F30E014FF6FF7303EA022319438B
:1041C000018370470A460021818B4FF67F731940A7
:1041D0001143818370470A460021818BC1F30E0190
:1041E0004FF6FF7303EA02231943818370470A469F
:1041F0000021018C4FF6FD73194011430184704773
:104200000A460021018C4FF6F773194011430184CF
:1042100070470A460021018C4FF6DF7319404FF6B4
:10422000FF7303EA02131943018470470A46002111
:10423000018C4FF67F7319404FF6FF7303EA0213A8
:104240001943018470470A460021018C4FF6FF5341
:1042500019404FF6FF7303EA0223194301847047A4
:104260000A460021018C4FF2FF7319404FF6FF738D
:1042700003EA02231943018470470A460021018C96
:104280004DF6FF7319404FF6FF7303EA02331943EB
:104290000184704730B5002301248C40A3B2048C04
:1042A0009C430484048C02FA01F5ADB22C430484CF
:1042B00030BD30B5002304248C40A3B2048C9C4351
:1042C0000484048C02FA01F5ADB22C43048430BDA1
:1042D000828B4FF2FF331A408283828B4FF6FF733B
:1042E00003EA01231A4382837047F0B50C46154652
:1042F000002100220026078C4EF6FF7C07EA0C07FF
:104300000784818B028C4FF6FF7707EA043640F66C
:10431000FF4739404FF6FF7707EA052739434FF645
:10432000FF7707EA0337394345F6FF773A4046F40B
:1043300080573A4381830284F0BD828B4FF6F3733A
:104340001A408283828B0A4382837047F0B50C4601
:104350001546002100220026078C4FF6FF6C07EA65
:104360000C070784818B028C4FF6FF7707EA04263F
:104370004FF60C7739404FF6FF7707EA03172F43C4
:1043800039434FF2FF573A4046F480773A438183EE
:104390000284F0BD028B4FF2FF331A400283028B7E
:1043A0004FF6FF7303EA01231A4302837047F0B507
:1043B0000C461546002100220026078C4FF6EF7CA4
:1043C00007EA0C070784018B028C4FF6FF7707EA98
:1043D000041640F6FF4739404FF6FF7707EA0337E8
:1043E00039434FF6FF7703E000000140000401402D
:1043F00007EA052739434FF65F773A4046F0100742
:104400003A4301830284F0BD028B4FF6F3731A40E6
:104410000283028B0A4302837047F0B50C461546AF
:1044200000210022068C4FF6FE773E400684018B69
:10443000028C4FF60C7631407E1C06EA03162E43A2
:1044400031434FF6F576324044F0010632430183A2
:104450000284F0BD70B505460C46208850B923890A
:10446000A28861882846FFF7D8FFE1882846FFF731
:10447000CBFF25E0208804280AD12389A2886188FF
:104480002846FFF794FFE1882846FFF783FF17E0EF
:10449000208808280AD12389A28861882846FFF746
:1044A00055FFE1882846FFF748FF09E02389A288E5
:1044B00061882846FFF719FFE1882846FFF708FFC3
:1044C00070BD002101804180012181800021C180D7
:1044D000018170472DE9F04105460C460026012771
:1044E000608808B9022600E00026A088012801D1D2
:1044F000022700E001272088A0B92389A2886188CB
:104500002846FFF78AFFE1882846FFF77DFF2389C9
:104510003A4631462846FFF74AFFE1882846FFF72A
:1045200039FF13E02389A28861882846FFF73FFFFF
:10453000E1882846FFF72EFF23893A463146284670
:10454000FFF76BFFE1882846FFF75EFFBDE8F081CB
:104550000146486B70470146886B70470146C86B3F
:1045600070470146086C70470A884B881A438B884D
:104570001A43CB881A430B891A434B891A438B89F8
:104580001A43A0F8442070470021018041808180B7
:10459000C180018141818181704731B1B0F84420EF
:1045A00042F40042A0F8442005E0B0F84420C2F3F1
:1045B0000E02A0F84420704721B1828842F0040224
:1045C000828004E082884FF6FB731A408280704735
:1045D00021B1828842F00102828004E082884FF695
:1045E000FE731A40828070471AB183890B4383811E
:1045F00002E083898B438381704781827047024642
:104600000020138A0B400BB1012000E0002070470E
:10461000CA430282704730B50246002000230024BE
:10462000158A05EA0103958905EA010413B10CB165
:10463000012000E0002030BDCA430282704741EAF9
:104640000203A0F8483070471AB183890B43838175
:1046500002E083898B438381704721B1828842F0D5
:104660000802828004E082884FF6F7731A40828045
:10467000704701894FF6F8721140018170470A4670
:10468000002101894FF68F73194011430181704752
:1046900030B504460D4629462046FFF7F0FF208935
:1046A00040F00700208130BD2DE9F04104460D4661
:1046B00016461F46602D06D13B4601223146204654
:1046C000FFF775FE05E03B46012231462046FFF725
:1046D000A4FE29462046FFF7D2FF208940F00700BC
:1046E0002081BDE8F08130B50C4600210189C9B2B6
:1046F0004FF6FF7505EA032515432543294301813C
:1047000030BD2DE9F04105460E4617469846002477
:1047100043463A4631462846FFF7E5FF2C894FF6D7
:10472000F870044044F007044FF68F70044044F0E2
:1047300070042C81BDE8F081F0B504460D461646A4
:104740001F463B46324629462046FFF7CCFF2089CC
:1047500040F480402081F0BD82884FF68F731A406C
:10476000828082880A438280704702894FF6F873FC
:104770001A40028102890A430281704702894FF67A
:104780007F731A40028102890A4302817047F0B5A3
:104790000C4615461E460021002200230189028B8B
:1047A000038C4FF6F877394021434FF6FC473A40E7
:1047B00040F201173A434FF6DD773B404FF6FF7763
:1047C00007EA06172F433B43018102830384F0BDB0
:1047D00021B1828842F08002828004E082884FF614
:1047E0007F731A4082807047A0F850107047000015
:1047F0000CB50020019000907648006840F48030AD
:104800007449086000BF7348006800F400300090ED
:104810000198401C0190009818B90198B0F5A06F5C
:10482000F1D16C48006800F4003010B10120009014
:1048300001E0002000900098012846D165484030F2
:10484000006840F080506349403108606248006869
:1048500040F48040604908605E48083000685D4967
:10486000083108600846006840F4004008600846C7
:10487000006840F4A05008605848091F0860081FED
:10488000006840F08070091F086000BF5148006850
:1048900000F000700028F9D040F20560504908602F
:1048A0004C480830006820F003004A49083108608D
:1048B0000846006840F00200086000BF4548083024
:1048C000006800F00C000828F8D10CBD10B5454870
:1048D000006840F47000434908603E48006840F0BA
:1048E00001003C49086000203A4908310860394815
:1048F00000683D490840374908603C48091D086088
:10490000081F006820F48020091F0860002031493A
:104910000C310860FFF76CFF4FF0006031498039BF
:10492000086010BD70B5002000220223002402217F
:10493000284D08352D6805F00C0020B1042806D05C
:10494000082834D107E02A4D2A4E356033E02A4D3D
:10495000284E35602FE01F4D2D1D2D68C5F3805466
:104960001C4D2D1D2D6805F03F0154B1224DB5FBA6
:10497000F1F5184E361D3668C6F3881605FB06F2AB
:1049800009E01B4DB5FBF1F5124E361D3668C6F336
:10499000881605FB06F20F4D2D1D2D68C5F3014548
:1049A0006D1C6B00B2FBF3F5124E356003E0104D49
:1049B000104E356000BF00BF064D08352D68C5F3A9
:1049C00003150E4E705D0B4D2D68C540094E3560C8
:1049D00070BD0000003802400070004019544007CC
:1049E000003C024088ED00E0FFFFF6FE103000249E
:1049F0000024F4003C00002040787D0140000020AD
:104A00000648804706480047FEE7FEE7FEE7FEE768
:104A1000FEE7FEE7FEE7FEE7FEE7FEE7CD4800081B
:104A2000890100087CB5002514E06946284601F09C
:104A30001DFF064666B9FD4850F8254044B1012CDB
:104A400006D0D4E9020100EB810060640198A06403
:104A5000681CC5B23F2DE8D97CBD00BF00BF03E094
:104A60004FF4FA6002F00AF8F14800780028F7D015
:104A7000F04800686421B0FBF1F0EE490860084698
:104A8000006828B90020EC490870FF2001F02EFFD3
:104A900002F0CAF80446E748006864214843E74941
:104AA0000860204602F0C4F800BF02F0BDF80446DA
:104AB000E2480068E24908600020E04908602046BA
:104AC00002F0B6F8DE480068DA490968B0FBF1F098
:104AD000C0F16400D849087002F004F9FFF7A2FFA2
:104AE0004FF47A7001F0CAFFDFE700B587B003200A
:104AF00000218022D34BCDE90132CDE903104FF6DE
:104B0000FE703E23D04A0090AFF2B10001F0C7FC26
:104B100006AACEA13E2001F02BFE07B000BD002466
:104B200000BF00BF02F080F80446C4480068401C83
:104B3000C2490860204602F07BF802F0D2F8F1E7A3
:104B400000B587B0032000218022C44BCDE901329B
:104B5000CDE903104FF6FF703F23C14A0090AFF23A
:104B6000410001F09CFC06AABEA13F2001F000FE1E
:104B700007B000BD04E0002200F8012B4A1E91B2EC
:104B80000029F8D1704770B54FF49671B948FFF716
:104B9000F1FF00230FE0581C85B203EB8300B549F9
:104BA00001EB800405EB850001EB800600202070FE
:104BB0006660581C83B20E2BEDD303EB8300AD4926
:104BC00001EB80040020207060600846AA4908605C
:104BD00070BD70B541F25841A848FFF7CBFF4FF4C4
:104BE00080719248FFF7C6FF002413E0601CC5B235
:104BF000C4EBC40000EB4000A04901EB8003C5EB0F
:104C0000C50000EB400001EB80065E619CA0D8640B
:104C1000601CC4B23D2CE9D3C4EBC40000EB4000DF
:104C2000964901EB80030020586195A0D8640020CC
:104C30009449086091489449086070BD0021934AE6
:104C40001170002004E00021914A1154411CC8B2A7
:104C50000828F8D300218F4A11708F4A11708F4AAB
:104C600011608F4A1160704700208E4908608E499C
:104C700008708E4908708E4908708E4908708E49F8
:104C800008606E4908606E4908606A4908606849B2
:104C90000870704710B502F01FF8FFF7E5FFFFF747
:104CA000CDFFFFF796FFFFF76EFF00F0F3FE00F079
:104CB000E4FF01F0DAFAFFF743FFFFF716FF02F017
:104CC0000DF810BD7B480078012808D1764800789F
:104CD000FF2804D274480078401C7349087070475C
:104CE00076496A4A1278885C6949095C734A515C62
:104CF00001EBC001684A1170704710B500246D487F
:104D00000078012830D101F08FFF04466648007812
:104D100020B165480078401E6349087062480078F9
:104D2000F8B962480078E0B9FFF7DAFF3F485A491E
:104D3000097850F8210059490860574800785549CA
:104D4000097888420DD055480068806B401C534953
:104D50000968886358480068401C5749086001F09A
:104D60007FFF204601F064FF10BD10B500245148BC
:104D70000078012811D101F057FF04464A48007815
:104D800040B94A480078FF2804D248480078401CBF
:104D900046490870204601F04BFF10BD10B50024B5
:104DA00001F042FF044640480078F8B93F480078D7
:104DB000E0B9FFF795FF1D483749097850F8210001
:104DC00036490860344800783249097888420DD065
:104DD00032480068806B401C304909688863364857
:104DE0000068401C3449086001F035FF204601F09E
:104DF0001FFF10BD10B500242E48007801286FD188
:104E000001F012FF04462848007860B9274800786E
:104E100050B126480078401E2449087008460078A2
:104E200018B920464CE058E053E04EE060340020D2
:104E300068000020600000205C0000207800002056
:104E400064000020603000205C32002075432F4F4A
:104E5000532D4949205374617400000060320020D2
:104E60005C34002075432F4F532D49492049646C11
:104E700065000000E42E0020540000206035002072
:104E80003F00000088000020800000206D0000200E
:104E90006E0000206B0000206C00002084000020C9
:104EA0007C00002098000020690000206A0000209B
:104EB000770000207600002050000020C27000081B
:104EC00001F0B6FEFFF76AFF0AE0204601F0B0FEEF
:104ED00006E0204601F0ACFE02E0204601F0A8FE0C
:104EE00010BD10B5EE48007890B9FFF7F9FEED4817
:104EF0000078ED490870ED48EA49097850F821003A
:104F0000EB49086008460068EA49086001F093FE32
:104F100010BD10B50024022001F0B0FD01F084FEA8
:104F200004460020E4490860204601F081FE4FF469
:104F30007A7001F0A3FD01F077FE0446DE480068B8
:104F4000DE4908600120DE490870204601F070FE4D
:104F500010BD70B5002601F0B9FF01F065FE0646F0
:104F6000D8480068401CD7490860304601F060FE10
:104F7000CB480078012853D1D348007820B10128CC
:104F800004D0022809D103E001250BE0002509E047
:104F900001250120CC49087004E001250020CA4900
:104FA000087000BF00BF05B970BDC848046833E091
:104FB00001F03AFE0646E06A50B3E06A401EE06245
:104FC000E06A28BB94F8300000F0370040B114F8D4
:104FD000300F00F0C800207001206070303C02E00B
:104FE000002084F8310094F8300000F0080078B90F
:104FF0003434A078B64909780843B5490870207858
:10500000B449085C6178084314F83419B14A505423
:105010006469304601F00CFE94F832003F28C7D195
:1050200000BFC1E74FF492707047704710B590F819
:10503000342001F10B039B5C90F83540A34301F150
:105040000B04A35423469B5C23B98B7A90F836401B
:10505000A3438B7210BD2DE9F04F05460F469046D5
:105060009946A87A9C490E5C05F10B00805D11F809
:1050700000B00BEBC60000F0FF0A8C4850F82A4045
:1050800000202034E0602760207C20EA08002074A3
:1050900084F81190207C203C00F0080068B994F856
:1050A00036008B4909780843894908708948805D32
:1050B00094F8351008438749885529462046FFF75C
:1050C000B5FF5046BDE8F08F10B57A4A1268D0613E
:1050D000784A126892F8343000F10B02D25C754BBA
:1050E0001B6893F835301A43724B1B6893F83440B1
:1050F00000F10B031A55827A6E4B1B6893F8363019
:105100001A4382726B4A126892F83410714A525CE8
:10511000684B1B6893F835309A436E4B5A541A46C5
:10512000525C42B9634A126892F83630684A127883
:105130009A43674B1A7010BD014600228A72002004
:1051400005E0002301F10B021354421CD0B20828E1
:10515000F7D3704705E011F8013B00F8013B531EFF
:105160009AB2002AF7D170470146002002E0491C9C
:10517000421CD0B20A78002AF9D170472DE9F84FC5
:1051800005460F4690469946DDE90AAB002000909F
:1051900001F04AFD009051480468002C7BD018347F
:1051A00054F8040C4D490860009801F041FD44F8A2
:1051B000187CA576002020766076606144F814BCE7
:1051C00044F80CAC44F8108C0C9824F8080C24F823
:1051D000069C0020E077E810207705F00700E076D5
:1051E000217F01208840A077E17E01208840607700
:1051F00000206060E060A0602062A0626062E06207
:105200002063AFF284306063183C002606E0002182
:1052100004F1500040F82610701CC6B2002EF6D0E3
:10522000204601F052FE01F0FFFC00901F4840F8BC
:105230002540009801F0FCFC204601F050FD01F0F3
:10524000F3FC00902148006860610020A0611F48C5
:10525000006810B11D48006884611C480460343443
:10526000A0781B4909780843194908702078194922
:10527000085C6178084314F83419164A50541848E9
:105280000078401C16490870009801F0D1FC0020FD
:10529000BDE8F88FFFE7009801F0CAFC4220F7E76D
:1052A000760000206C0000206B000020603400209D
:1052B000840000207C000020780000206000002096
:1052C00068000020980000208C000020880000204A
:1052D0006D0000206E000020C270000880000020D9
:1052E000770000202DE9F05F04460F4691461E46E8
:1052F0004FF0000B2078052804D0012030700020EA
:10530000BDE8F09F09F0800ABAF1000F04D029F03F
:1053100080094FF0010801E04FF0000800203070D4
:1053200001F082FC8346B9F1000F2CD0B9F1010FD6
:105330003BD0B9F1020F03D0B9F1030F46D111E010
:10534000208900EA0705BD4206D1B8F1010F05D159
:105350002089A843208101E070203070584601F078
:1053600067FC3AE0208900EA070535B1B8F1010F82
:1053700005D12089A843208101E070203070584673
:1053800001F056FC29E0208927EA0005BD4206D13C
:10539000B8F1010F05D120892843208101E0702058
:1053A0003070584601F044FC17E0208927EA0005D8
:1053B00035B1B8F1010F05D120892843208101E0E2
:1053C00070203070584601F033FC06E0584601F07A
:1053D0002FFC00256F20307000BF00BF28468FE7EC
:1053E0002DE9F04106460D460027FA48007820B125
:1053F000102028700020BDE8F08101F015FC074660
:10540000F548046884B100684068F34908600520E5
:105410002070268100206060F0A0E060384601F036
:1054200007FC0020287004E0384601F001FC7220DF
:1054300028702046DFE730B501464A6808682AB977
:10544000CC68606028B10025456002E0106000B1C2
:1054500042608B6800255D6230BDF0B506460F46A0
:10546000B4680020283460602780207A00F0DF00D4
:10547000207200206072207A283C88B93434A078E9
:10548000D74909780843D64908702078D549085C7F
:105490006178084314F83419D24A5054012500E0C9
:1054A00000253046FFF7C7FF2846F0BD2DE9F0473D
:1054B0000446894615464FF0000AC648007820B1D8
:1054C0000F2028702046BDE8F0872078052803D0FB
:1054D000012028702046F6E701F0A6FB82466068AE
:1054E00008B1012700E00027B9F1000F03D0B9F19E
:1054F000010F3CD119E08FB9B8A0E0600020207006
:10550000B5480068606000202081B34804605046C0
:1055100001F08EFB00202870002605E0504601F0C7
:1055200087FB49202870264628E0D4F8048005E04F
:1055300000214046FFF791FFD8F80080B8F1000F36
:10554000F6D1A6A0E06000202070A348006860604B
:1055500000202081A0480460504601F069FB012F23
:1055600001D1FFF71BFC00202870002606E0504602
:1055700001F05EFB07202870264600BF00BF3046C2
:10558000A1E72DE9F04105460E4614460027914853
:10559000007820B1112020700020BDE8F08101F0DA
:1055A00043FB07462878052806D0384601F040FB23
:1055B000012020700020F0E7E86830603068FFF7D5
:1055C000D3FD8046384601F033FB00202070404672
:1055D000E3E72DE9F04105460E46144600277D48D5
:1055E000007818B112202070BDE8F08101F01CFB9A
:1055F00007462878052805D0384601F019FB012018
:105600002070F1E7EE60384601F012FB00202070B8
:1056100000BFE9E7F0B51446059E734F3F6897F861
:10562000307047F02007DFF8C0C1DCF800C08CF80C
:1056300030700027DFF8B0C1DCF800C08CF83170A2
:10564000694F3F68FE62684F3F6879620C828B74D5
:10565000654F3F688F6047680F6000274F60C860E4
:10566000456805B1696041605F4F3F6897F8342035
:105670005C4FBF5CDFF870C1DCF800C09CF835C03F
:1056800027EA0C07DFF85CC10CF802706746BF5CC4
:105690005FB9554F3F6897F836C0514F3F7827EABA
:1056A0000C07DFF83CC18CF80070F0BD2DE9F04F1D
:1056B00089B005460F4691469A46129E00200290F8
:1056C0004448007828B102203070002009B0BDE8BD
:1056D000F08F4648007818B10D2030700020F5E7B3
:1056E0002878052803D0012030700020EEE709F06B
:1056F000800BBBF1000F04D009F07F094FF00108C7
:1057000001E04FF0000801F08FFA0290B9F1000FAC
:105710004AD0B9F1010F78D0B9F1020F03D0B9F135
:10572000030F71D120E0288900EA0704BC420FD1A1
:10573000B8F1010F02D12889A04328812A480068C6
:105740000485029801F074FA002030702046BDE70D
:105750004B463A4604A92846CDF800A0FFF75AFF69
:10576000029801F065FA78E0288900EA07047CB124
:10577000B8F1010F02D12889A04328811A48006896
:105780000485029801F054FA0020307020469DE70D
:105790004B463A4604A92846CDF800A0FFF73AFF49
:1057A000029801F045FA58E0288927EA0004BC4233
:1057B0001ED1B8F1010F02D12889204328810A485F
:1057C00000680485029801F033FA0020307020460A
:1057D0007CE71AE069000020580000203F0000002C
:1057E0006D0000206E0000207C0000206A00002078
:1057F0004B463A4604A92846CDF800A0FFF70AFF19
:10580000029801F015FA28E01FE0288927EA000431
:105810007CB1B8F1010F02D1288920432881B14819
:1058200000680485029801F003FA002030702046D9
:105830004CE74B463A4604A92846CDF800A0FFF7AE
:10584000E9FE029801F0F4F907E0029801F0F0F99E
:1058500000246F203070204638E700BFFFF79EFA23
:1058600001F0E2F902909F48006890F8310020B3FF
:105870009C48006890F8310003900020994909681D
:1058800081F8310004A8FFF7D6FD0020954909688A
:1058900081F83000029801F0CBF900240398012828
:1058A00005D0022802D10E20307003E000BF0A208C
:1058B000307000BF00BF204608E78A480068048DAA
:1058C000B8F1010F1ED1B9F1000F0ED0B9F1010FDF
:1058D0000CD0B9F1020F03D0B9F1030F0AD100E0E7
:1058E00000BF2889A04328810BE000BF28892043FE
:1058F000288106E0029801F09BF96F2030700020AB
:10590000E4E600BF029801F093F9002030702046D1
:10591000DCE670B5002501F087F90546714800689E
:10592000048D284601F084F9204670BD2DE9FC5F06
:105930000446894692461E4600200090207805289D
:1059400004D0012030700020BDE8FC9F01F06CF90C
:105950000090BAF1000F03D0BAF1010F0AD104E0B0
:10596000208920EA090020810BE0208940EA090013
:10597000208106E0009801F05BF971203070002072
:10598000E2E700BF4FF0000B656855E0A87C40B32C
:10599000012838D0022802D0032844D111E0208900
:1059A000298A00EA0107288AB84209D139462846DF
:1059B000FFF753FD8046B8F1010F01D14FF0010B05
:1059C00038E02089298A00EA01074FB13946284684
:1059D000FFF743FD8046B8F1010F01D14FF0010BF5
:1059E00028E0288A218920EA0107288AB84209D1BB
:1059F00039462846FFF731FD8046B8F1010F01D145
:105A00004FF0010B16E0288A218920EA01074FB1E7
:105A100039462846FFF721FD8046B8F1010F01D134
:105A20004FF0010B06E0009801F002F96F20307092
:105A3000002089E700BF2D68002DA7D1009801F054
:105A4000F7F8BBF1010F01D1FFF7A8F901F0ECF86D
:105A5000009020890190009801F0EAF80020307051
:105A6000019871E72DE9F04104460D4600272078A2
:105A7000052804D0012028700020BDE8F08101F045
:105A8000D3F807462689384601F0D2F8002028705E
:105A90003046F2E72DE9F04150211348FFF76AF84C
:105AA00000250EE0681C86B20F4800EB051400EBE1
:105AB0000617002020706760AFF2E020E060681CED
:105AC00085B2042DEED3084800EB051400202070A9
:105AD0006060AFF2F820E060034804490860BDE868
